:03000000020A50A1
:0C0A5000787FE4F6D8FD758107020A9754
:0C0CF9007F037E1A7DDFDDFEDEFCDFFAEB
:010D050022CB
:0C0D06007F057E347DC3DDFEDEFCDFFADD
:010D120022BE
:0E0CDD00AC07AF041CEF6005120D0680F52277
:100CA3007591407592B0E4F5B175B208F5CF75CD85
:050CB300C075CE5C22BB
:0D0D130075BB70C2C4120CF9D2C4020CF9F9
:100CB800759850758920758DFD758BFDD28ED2ACD7
:030CC800D2AF2286
:100C8C00E4F591759208759A50758E14759CDC7507
:070C9C00AF03D2AFD2AC227E
:0C0D2000E4FF7E64900066E4F0A3DEFCBB
:010D2C0022A4
:0C0D2D00E4FF7E64900000E4F0A3DEFC14
:010D39002297
:0C0D3A00E4FF7E6490019BE4F0A3DEFC6B
:010D4600228A
:0C0D4700E4FF7EC89000CAE4F0A3DEFCCC
:010D5300227D
:0B004600900213EBF0A3EAF0A3E9F036
:10005100E4900219F0A3F0900213E0FBA3E0FAA3ED
:10006100E0F91204BBFF700281BA24D0B41700403A
:100071000281AE90007E25E0500205837341C801E4
:10008100AC01E821242160219C21D8411441504137
:100091008C81AE81AE81AE81AE81AE81AE81AE6129
:1000A10007614A618D61D081138156900219E07018
:1000B10002A3E0900216700CE0FBA3E0FAA3E0F9C2
:1000C1007401611EE0FBA3E0FAA3E0F91204BBC4D2
:1000D10054F0120501900216E0FBA3E0FAA3E0F947
:1000E1001204BB4401819B900219E07002A3E090CD
:1000F1000216700CE0FBA3E0FAA3E0F97402611EA2
:10010100E0FBA3E0FAA3E0F91204BBC454F012052A
:1001110001900216E0FBA3E0FAA3E0F91204BB444C
:1001210002819B900219E07002A3E0900216700C0C
:10013100E0FBA3E0FAA3E0F97403611EE0FBA3E096
:10014100FAA3E0F91204BBC454F01205019002169F
:10015100E0FBA3E0FAA3E0F91204BB4403819B9006
:100161000219E07002A3E0900216700CE0FBA3E01C
:10017100FAA3E0F97404611EE0FBA3E0FAA3E0F93D
:100181001204BBC454F0120501900216E0FBA3E077
:10019100FAA3E0F91204BB4404819B900219E070B8
:1001A10002A3E0900216700CE0FBA3E0FAA3E0F9D1
:1001B1007405611EE0FBA3E0FAA3E0F91204BBC4DD
:1001C10054F0120501900216E0FBA3E0FAA3E0F956
:1001D1001204BB4405819B900219E07002A3E090D8
:1001E1000216700CE0FBA3E0FAA3E0F97406611EAD
:1001F100E0FBA3E0FAA3E0F91204BBC454F012053A
:1002010001900216E0FBA3E0FAA3E0F91204BB445B
:1002110006819B900219E07002A3E0900216700C17
:10022100E0FBA3E0FAA3E0F97407611EE0FBA3E0A1
:10023100FAA3E0F91204BBC454F0120501900216AE
:10024100E0FBA3E0FAA3E0F91204BB4407819B9011
:100251000219E07002A3E0900216700CE0FBA3E02B
:10026100FAA3E0F97408611EE0FBA3E0FAA3E0F948
:100271001204BBC454F0120501900216E0FBA3E086
:10028100FAA3E0F91204BB4408819B900219E070C3
:1002910002A3E0900216700CE0FBA3E0FAA3E0F9E0
:1002A10074098079E0FBA3E0FAA3E0F91204BBC46E
:1002B10054F0120501900216E0FBA3E0FAA3E0F965
:1002C1001204BB4409819B900219E07002A3E090E3
:1002D10002167011E0FBA3E0FAA3E0F9E4120501B4
:1002E1009002198174E0FBA3E0FAA3E0F91204BBC8
:1002F100C454F0120501900216E0FBA3E0FAA3E05A
:10030100F91204BB819B900219E07002A3E09002F4
:10031100167013E0FBA3E0FAA3E0F9740A120501D9
:10032100900219E48174E0FBA3E0FAA3E0F912045E
:10033100BBC454F0120501900216E0FBA3E0FAA33E
:10034100E0F91204BB440A819B900219E07002A3F8
:10035100E09002167013E0FBA3E0FAA3E0F9740B3E
:10036100120501900219E48174E0FBA3E0FAA3E015
:10037100F91204BBC454F0120501900216E0FBA36C
:10038100E0FAA3E0F91204BB440B819B900219E04F
:100391007002A3E09002167013E0FBA3E0FAA3E061
:1003A100F9740C120501900219E48174E0FBA3E0D9
:1003B100FAA3E0F91204BBC454F01205019002162D
:1003C100E0FBA3E0FAA3E0F91204BB440C819B908B
:1003D1000219E07002A3E09002167013E0FBA3E0A3
:1003E100FAA3E0F9740D120501900219E48174E099
:1003F100FBA3E0FAA3E0F91204BBC454F012050117
:10040100900216E0FBA3E0FAA3E0F91204BB440D4D
:10041100819B900219E07002A3E09002167013E034
:10042100FBA3E0FAA3E0F9740E120501900219E4AE
:100431008041E0FBA3E0FAA3E0F91204BBC454F04D
:10044100120501900216E0FBA3E0FAA3E0F9120401
:10045100BB440E8045900219E07002A3E0900216A1
:100461007017E0FBA3E0FAA3E0F9740F1205019005
:100471000219E4F0A304F08034E0FBA3E0FAA3E066
:10048100F91204BBC454F0120501900216E0FBA35B
:10049100E0FAA3E0F91204BB440F120501E4900253
:1004A10019F0A3F090021775F001120513900214D0
:0904B100E475F001120513015875
:0104BA00221F
:0B0D54008FCFE5CD30E7FB75CDC0224E
:0B0C5E0090021EEBF0A3EAF0A3E9F007
:100C6900E4FE90021EE0FBA3E0FAA3E0F98E827590
:100C790083001204D4FF6006120D540E80E4E4FFD1
:030C8900020D5405
:0E0CEB00C2ACC2998F993099FDC299D2AC2249
:100BFA00D2AF90021BEBF0A3EAF0A3E9F090021B3C
:100C0A00E0FBA3E0FAA3E0F91204BBFF6012120CA6
:100C1A00EB90021CE475F001120513120CF980DD49
:020C2A00D2AF47
:010C2C0022A5
:100CCB00E4F5AF8F9BE59A645060FA759A5075AF57
:020CDB000122F4
:100C2D0090021EEBF0A3EAF0A3E9F090021EE0FBA8
:100C3D00A3E0FAA3E0F91204BBFF640A6012120CE0
:100C4D00CB90021FE475F001120513120CF980DB35
:010C5D002274
:100003007069630D0A005049430D0A00656D333171
:0C001300300D0A00454D3331300D0A005D
:1006FC00410198006064019B0000000000000000B4
:10070C0000000000000000000000000000000000DD
:10071C0000000000000000000000000000000000CD
:10072C0000000000000000000000000000000000BD
:10073C0000000000000000000000000000000000AD
:10074C00000000000000000000000000000000009D
:10075C0000000000000000000000000060C800CA9B
:10076C00000000000000000000000000000000007D
:10077C00000000000000000000000000000000006D
:10078C00000000000000000000000000000000005D
:10079C00000000000000000000000000000000004D
:1007AC00000000000000000000000000000000003D
:1007BC00000000000000000000000000000000002D
:1007CC00000000000000000000000000000000001D
:1007DC00000000000000000000000000000000000D
:1007EC0000000000000000000000000000000000FD
:1007FC0000000000000000000000000000000000ED
:10080C0000000000000000000000000000000000DC
:10081C0000000000000000000000000000000000CC
:10082C000000000000000000606400660000000092
:10083C0000000000000000000000000000000000AC
:10084C00000000000000000000000000000000009C
:10085C00000000000000000000000000000000008C
:10086C00000000000000000000000000000000007C
:10087C00000000000000000000000000000000006C
:10088C00000000000000000000000000000000005C
:10089C006064000000000000000000000000000088
:1008AC00000000000000000000000000000000003C
:1008BC00000000000000000000000000000000002C
:1008CC00000000000000000000000000000000001C
:1008DC00000000000000000000000000000000000C
:1008EC0000000000000000000000000000000000FC
:1008FC0000000000000000004101990041019A0035
:10090C004200640000420194000042019600004243
:04091C000192000044
:100B4400900206EBF0A3EAF0A3E9F0900206E0FBC2
:100B5400A3E0FAA3E02DF9EA3CFAE92401F9E43A26
:100B6400FA900206EBF0A3EAF0A3E9F0900206E0A3
:100B7400F9A3E0FAA3E090020CC9F0A3EAF0A3E918
:100B8400F0C3900205E09DFF900204E09CCF24FE98
:100B9400CF34FF90020FF0A3EFF07B017A00796667
:030BA400020ADC66
:10002600120CA3120D13120CB8120C8C120D3A7589
:0B003600B60175B501D294C2B380FE84
:03002300020921AE
:10092100C0E0C0F0C083C082C0D075D000C000C09C
:1009310001C002C003C004C005C006C0073099044D
:10094100C299D29C2098024135900199E0FF04F0B0
:10095100749B2FF582E43401F583E599F0E5996400
:100961000A60024117789B7C017D017BFF7A007947
:10097100031206A7EF6012789B7C017D017BFF7A51
:100981000079091206A7EF701C900064E4F0A3043B
:10099100F0900199E4F0120D3A7F6F120CEB7F6B2E
:1009A100120CEB4131789B7C017D017BFF7A007950
:1009B1000F1206A7EF6012789B7C017D017BFF7A05
:1009C1000079171206A7EF7020900064E4F0A37479
:1009D10002F0900199E4F0120D3A7F6F120CEB7F57
:1009E1006B120CEB120CF98047900064E0FEA3E05F
:1009F100FFEE703CEF24FE600E0470347B017A013F
:100A0100799B120C5E8021C298D29C7B017A01797C
:100A11009B120C2D8012E599B41A15C298D29C7BB9
:100A2100017A01799B120C2D900199E4F0120D3A93
:100A3100C298D29CD007D006D005D004D003D002F2
:0F0A4100D001D000D0D0D082D083D0F0D0E0321E
:03004300020BA706
:100BA700C0E0C0F0C083C082C0D075D000C000C014
:0D0BB70001C002C003C004C005C006C00795
:100BC40053AFFEE59A30E103759A50E59A30E0059B
:0B0BD400AF9B120CEB539AFE43AF01E5
:100BDF00D007D006D005D004D003D002D001D0006A
:0B0BEF00D0D0D082D083D0F0D0E03214
:100A5C00020026E493A3F8E493A34003F68001F28A
:100A6C0008DFF48029E493A3F85407240CC8C3339B
:100A7C00C4540F4420C8834004F456800146F6DF6A
:100A8C00E4800B01020408102040809006FCE47EF8
:100A9C00019360BCA3FF543F30E509541FFEE4935F
:100AAC00A360010ECF54C025E060A840B8E493A326
:100ABC00FAE493A3F8E493A3C8C582C8CAC583CA51
:100ACC00F0A3C8C582C8CAC583CADFE9DEE780BE09
:0109200000D6
:1004BB00BB010689828A83E0225002E722BBFE023F
:0904CB00E32289828A83E4932272
:1004D400BB010CE58229F582E5833AF583E02250DD
:1004E40006E92582F8E622BBFE06E92582F8E22227
:0D04F400E58229F582E5833AF583E4932241
:10050100BB010689828A83F0225002F722BBFE01D9
:02051100F322D3
:10051300C5F0F8A3E028F0C5F0F8E5821582700273
:060523001583E038F02210
:10052900E3F5F009E208B5F06D606B80F3E3F5F0EF
:1005390009E608B5F060605E80F387F009E608B562
:10054900F054605280F487F009E208B5F04860463B
:1005590080F488828C8387F009E0A3B5F03860368F
:1005690080F488828C8387F009E493A3B5F027602F
:100579002580F388828C83E3F5F009E0A3B5F016B2
:10058900601480F388828C83E3F5F009E493A3B5C2
:10059900F004600280F2020654808580E7808E8034
:1005A900D2803C8015806C807E809B80B5808B805A
:1005B900A1804F8070803A02066089828A83ECFAB2
:1005C900E493F5F0A3C8C582C8CCC583CCE493A352
:1005D900C8C582C8CCC583CCB5F070606E80E1898E
:1005E900828A83E493F5F0A3E208B5F05E605C804B
:1005F900F289828A83E0F5F0A3E608B5F04D604BF5
:1006090080F389828A83E0F5F0A3E208B5F03C60C3
:100619003A80F389828A83E493F5F0A3E608B5F07A
:100629002A602880F2805389828A83ECFAE493F560
:10063900F0A3C8C582C8CCC583CCE0A3C8C582C80D
:10064900CCC583CCB5F004600280E27FFFB5F0022F
:100659000F2240027F012289828A83ECFAE0F5F0B9
:10066900A3C8C582C8CCC583CCE0A3C8C582C8CC01
:10067900C583CCB5F0D560D380E389828A83ECFA4F
:10068900E0F5F0A3C8C582C8CCC583CCE493A3C860
:10069900C582C8CCC583CCB5F0B160AF80E288F023
:1006A900ED2402B4040050A3F582EB2402B4040043
:0B06B900509923234582239005A27373
:100ADC00900209EBF0A3EAF0A3E9F0E4900211F024
:100AEC00A3F090020F74FFF5F01206E645F0603C9F
:100AFC0090020CE0FBA3E0FAA3E0F91204BBFF9018
:100B0C000209E0FBA3E0FAA3E0F9900211E475F00E
:100B1C00011206E685F082F583EF1206C4EF60C27F
:100B2C0090020DE475F00112051380B6900209E0F5
:080B3C00FBA3E0FAA3E0F9229B
:1006C400F8BB010DE58229F582E5833AF583E8F06C
:1006D400225006E92582C8F622BBFE05E92582C818
:0206E400F22200
:1006E600A3F8E0C5F025F0F0E582158270021583C7
:0606F600E0C838F0E82224
:00000001FF
